{
  "_format": "hh-sol-artifact-1",
  "contractName": "Token",
  "sourceName": "contracts/token.sol",
  "abi": [
    {
      "inputs": [],
      "stateMutability": "nonpayable",
      "type": "constructor"
    },
    {
      "anonymous": false,
      "inputs": [
        {
          "indexed": false,
          "internalType": "string",
          "name": "message",
          "type": "string"
        }
      ],
      "name": "AdminMessage",
      "type": "event"
    },
    {
      "anonymous": false,
      "inputs": [
        {
          "indexed": false,
          "internalType": "string",
          "name": "oldLog",
          "type": "string"
        },
        {
          "indexed": false,
          "internalType": "string",
          "name": "newLog",
          "type": "string"
        }
      ],
      "name": "LogUpdated",
      "type": "event"
    },
    {
      "anonymous": false,
      "inputs": [
        {
          "indexed": false,
          "internalType": "string",
          "name": "oldMessage",
          "type": "string"
        },
        {
          "indexed": false,
          "internalType": "string",
          "name": "newMessage",
          "type": "string"
        }
      ],
      "name": "MessageUpdated",
      "type": "event"
    },
    {
      "anonymous": false,
      "inputs": [
        {
          "indexed": true,
          "internalType": "address",
          "name": "payer",
          "type": "address"
        },
        {
          "indexed": false,
          "internalType": "uint256",
          "name": "amount",
          "type": "uint256"
        },
        {
          "indexed": false,
          "internalType": "string",
          "name": "message",
          "type": "string"
        }
      ],
      "name": "PaymentLogged",
      "type": "event"
    },
    {
      "anonymous": false,
      "inputs": [
        {
          "indexed": true,
          "internalType": "address",
          "name": "from",
          "type": "address"
        },
        {
          "indexed": true,
          "internalType": "address",
          "name": "to",
          "type": "address"
        },
        {
          "indexed": false,
          "internalType": "uint256",
          "name": "amount",
          "type": "uint256"
        }
      ],
      "name": "Transfer",
      "type": "event"
    },
    {
      "inputs": [
        {
          "internalType": "string",
          "name": "_newMessage",
          "type": "string"
        }
      ],
      "name": "HouseAdded",
      "outputs": [],
      "stateMutability": "nonpayable",
      "type": "function"
    },
    {
      "inputs": [
        {
          "internalType": "string",
          "name": "_newMessage",
          "type": "string"
        }
      ],
      "name": "HouseRented",
      "outputs": [],
      "stateMutability": "nonpayable",
      "type": "function"
    },
    {
      "inputs": [
        {
          "internalType": "address",
          "name": "",
          "type": "address"
        }
      ],
      "name": "balanceOf",
      "outputs": [
        {
          "internalType": "uint256",
          "name": "",
          "type": "uint256"
        }
      ],
      "stateMutability": "view",
      "type": "function"
    },
    {
      "inputs": [],
      "name": "fetchLog",
      "outputs": [
        {
          "internalType": "string",
          "name": "",
          "type": "string"
        }
      ],
      "stateMutability": "view",
      "type": "function"
    },
    {
      "inputs": [],
      "name": "log",
      "outputs": [
        {
          "internalType": "string",
          "name": "",
          "type": "string"
        }
      ],
      "stateMutability": "view",
      "type": "function"
    },
    {
      "inputs": [
        {
          "internalType": "string",
          "name": "_adminMessage",
          "type": "string"
        }
      ],
      "name": "logAdminMessage",
      "outputs": [],
      "stateMutability": "nonpayable",
      "type": "function"
    },
    {
      "inputs": [],
      "name": "message",
      "outputs": [
        {
          "internalType": "string",
          "name": "",
          "type": "string"
        }
      ],
      "stateMutability": "view",
      "type": "function"
    },
    {
      "inputs": [],
      "name": "name",
      "outputs": [
        {
          "internalType": "string",
          "name": "",
          "type": "string"
        }
      ],
      "stateMutability": "view",
      "type": "function"
    },
    {
      "inputs": [],
      "name": "owner",
      "outputs": [
        {
          "internalType": "address",
          "name": "",
          "type": "address"
        }
      ],
      "stateMutability": "view",
      "type": "function"
    },
    {
      "inputs": [],
      "name": "symbol",
      "outputs": [
        {
          "internalType": "string",
          "name": "",
          "type": "string"
        }
      ],
      "stateMutability": "view",
      "type": "function"
    },
    {
      "inputs": [],
      "name": "totalSupply",
      "outputs": [
        {
          "internalType": "uint256",
          "name": "",
          "type": "uint256"
        }
      ],
      "stateMutability": "view",
      "type": "function"
    },
    {
      "inputs": [
        {
          "internalType": "address",
          "name": "_to",
          "type": "address"
        },
        {
          "internalType": "uint256",
          "name": "_amount",
          "type": "uint256"
        },
        {
          "internalType": "string",
          "name": "m",
          "type": "string"
        }
      ],
      "name": "transfer",
      "outputs": [],
      "stateMutability": "nonpayable",
      "type": "function"
    },
    {
      "inputs": [
        {
          "internalType": "string",
          "name": "_newLog",
          "type": "string"
        }
      ],
      "name": "updateLog",
      "outputs": [],
      "stateMutability": "nonpayable",
      "type": "function"
    }
  ],
  "bytecode": "0x60806040526040518060400160405280600281526020017f4d79000000000000000000000000000000000000000000000000000000000000815250600090816100489190610338565b506040518060400160405280600381526020017f4d485400000000000000000000000000000000000000000000000000000000008152506001908161008d9190610338565b50620f42406002553480156100a157600080fd5b5033600360006101000a81548173ffffffffffffffffffffffffffffffffffffffff021916908373ffffffffffffffffffffffffffffffffffffffff16021790555061040a565b600081519050919050565b7f4e487b7100000000000000000000000000000000000000000000000000000000600052604160045260246000fd5b7f4e487b7100000000000000000000000000000000000000000000000000000000600052602260045260246000fd5b6000600282049050600182168061016957607f821691505b60208210810361017c5761017b610122565b5b50919050565b60008190508160005260206000209050919050565b60006020601f8301049050919050565b600082821b905092915050565b6000600883026101e47fffffffffffffffffffffffffffffffffffffffffffffffffffffffffffffffff826101a7565b6101ee86836101a7565b95508019841693508086168417925050509392505050565b6000819050919050565b6000819050919050565b600061023561023061022b84610206565b610210565b610206565b9050919050565b6000819050919050565b61024f8361021a565b61026361025b8261023c565b8484546101b4565b825550505050565b600090565b61027861026b565b610283818484610246565b505050565b5b818110156102a75761029c600082610270565b600181019050610289565b5050565b601f8211156102ec576102bd81610182565b6102c684610197565b810160208510156102d5578190505b6102e96102e185610197565b830182610288565b50505b505050565b600082821c905092915050565b600061030f600019846008026102f1565b1980831691505092915050565b600061032883836102fe565b9150826002028217905092915050565b610341826100e8565b67ffffffffffffffff81111561035a576103596100f3565b5b6103648254610151565b61036f8282856102ab565b600060209050601f8311600181146103a25760008415610390578287015190505b61039a858261031c565b865550610402565b601f1984166103b086610182565b60005b828110156103d8578489015182556001820191506020850194506020810190506103b3565b868310156103f557848901516103f1601f8916826102fe565b8355505b6001600288020188555050505b505050505050565b6112ac806104196000396000f3fe608060405234801561001057600080fd5b50600436106100cf5760003560e01c80638ba5ae6f1161008c578063baa8a2fc11610066578063baa8a2fc146101ee578063e2008c031461020a578063e21f37ce14610228578063f1138d4b14610246576100cf565b80638ba5ae6f146101965780638da5cb5b146101b257806395d89b41146101d0576100cf565b806306fdde03146100d457806318160ddd146100f257806351973ec91461011057806356b8c7241461012e5780636588930c1461014a57806370a0823114610166575b600080fd5b6100dc610262565b6040516100e99190610a34565b60405180910390f35b6100fa6102f0565b6040516101079190610a6f565b60405180910390f35b6101186102f6565b6040516101259190610a34565b60405180910390f35b61014860048036038101906101439190610c5d565b610384565b005b610164600480360381019061015f9190610ccc565b6104c7565b005b610180600480360381019061017b9190610d15565b610501565b60405161018d9190610a6f565b60405180910390f35b6101b060048036038101906101ab9190610ccc565b610519565b005b6101ba610618565b6040516101c79190610d51565b60405180910390f35b6101d861063e565b6040516101e59190610a34565b60405180910390f35b61020860048036038101906102039190610ccc565b6106cc565b005b6102126107a8565b60405161021f9190610a34565b60405180910390f35b61023061083a565b60405161023d9190610a34565b60405180910390f35b610260600480360381019061025b9190610ccc565b6108c8565b005b6000805461026f90610d9b565b80601f016020809104026020016040519081016040528092919081815260200182805461029b90610d9b565b80156102e85780601f106102bd576101008083540402835291602001916102e8565b820191906000526020600020905b8154815290600101906020018083116102cb57829003601f168201915b505050505081565b60025481565b6006805461030390610d9b565b80601f016020809104026020016040519081016040528092919081815260200182805461032f90610d9b565b801561037c5780601f106103515761010080835404028352916020019161037c565b820191906000526020600020905b81548152906001019060200180831161035f57829003601f168201915b505050505081565b60006005805461039390610d9b565b80601f01602080910402602001604051908101604052809291908181526020018280546103bf90610d9b565b801561040c5780601f106103e15761010080835404028352916020019161040c565b820191906000526020600020905b8154815290600101906020018083116103ef57829003601f168201915b5050505050905081600590816104229190610f78565b507f5b4717af615de779c9c12885d202645882ad93995957a99a4a1a145b3ccdbc10818360405161045492919061104a565b60405180910390a18373ffffffffffffffffffffffffffffffffffffffff163373ffffffffffffffffffffffffffffffffffffffff167fddf252ad1be2c89b69c2b068fc378daa952ba7f163c4a11628f55a4df523b3ef856040516104b99190610a6f565b60405180910390a350505050565b7f27727882bd190f5a2f84e21914b553731940ed0fe50f31444893a208319c2c20816040516104f69190610a34565b60405180910390a150565b60046020528060005260406000206000915090505481565b60006006805461052890610d9b565b80601f016020809104026020016040519081016040528092919081815260200182805461055490610d9b565b80156105a15780601f10610576576101008083540402835291602001916105a1565b820191906000526020600020905b81548152906001019060200180831161058457829003601f168201915b505050505090506006826040516020016105bc92919061118c565b604051602081830303815290604052600690816105d99190610f78565b507f1b05e009750f05be8d5252066ca0b377f7dd39edd1ccc6e639813ce1eab7a9b081600660405161060c92919061123f565b60405180910390a15050565b600360009054906101000a900473ffffffffffffffffffffffffffffffffffffffff1681565b6001805461064b90610d9b565b80601f016020809104026020016040519081016040528092919081815260200182805461067790610d9b565b80156106c45780601f10610699576101008083540402835291602001916106c4565b820191906000526020600020905b8154815290600101906020018083116106a757829003601f168201915b505050505081565b6000600580546106db90610d9b565b80601f016020809104026020016040519081016040528092919081815260200182805461070790610d9b565b80156107545780601f1061072957610100808354040283529160200191610754565b820191906000526020600020905b81548152906001019060200180831161073757829003601f168201915b50505050509050816005908161076a9190610f78565b507f5b4717af615de779c9c12885d202645882ad93995957a99a4a1a145b3ccdbc10818360405161079c92919061104a565b60405180910390a15050565b6060600680546107b790610d9b565b80601f01602080910402602001604051908101604052809291908181526020018280546107e390610d9b565b80156108305780601f1061080557610100808354040283529160200191610830565b820191906000526020600020905b81548152906001019060200180831161081357829003601f168201915b5050505050905090565b6005805461084790610d9b565b80601f016020809104026020016040519081016040528092919081815260200182805461087390610d9b565b80156108c05780601f10610895576101008083540402835291602001916108c0565b820191906000526020600020905b8154815290600101906020018083116108a357829003601f168201915b505050505081565b6000600580546108d790610d9b565b80601f016020809104026020016040519081016040528092919081815260200182805461090390610d9b565b80156109505780601f1061092557610100808354040283529160200191610950565b820191906000526020600020905b81548152906001019060200180831161093357829003601f168201915b5050505050905081600590816109669190610f78565b507f5b4717af615de779c9c12885d202645882ad93995957a99a4a1a145b3ccdbc10818360405161099892919061104a565b60405180910390a15050565b600081519050919050565b600082825260208201905092915050565b60005b838110156109de5780820151818401526020810190506109c3565b60008484015250505050565b6000601f19601f8301169050919050565b6000610a06826109a4565b610a1081856109af565b9350610a208185602086016109c0565b610a29816109ea565b840191505092915050565b60006020820190508181036000830152610a4e81846109fb565b905092915050565b6000819050919050565b610a6981610a56565b82525050565b6000602082019050610a846000830184610a60565b92915050565b6000604051905090565b600080fd5b600080fd5b600073ffffffffffffffffffffffffffffffffffffffff82169050919050565b6000610ac982610a9e565b9050919050565b610ad981610abe565b8114610ae457600080fd5b50565b600081359050610af681610ad0565b92915050565b610b0581610a56565b8114610b1057600080fd5b50565b600081359050610b2281610afc565b92915050565b600080fd5b600080fd5b7f4e487b7100000000000000000000000000000000000000000000000000000000600052604160045260246000fd5b610b6a826109ea565b810181811067ffffffffffffffff82111715610b8957610b88610b32565b5b80604052505050565b6000610b9c610a8a565b9050610ba88282610b61565b919050565b600067ffffffffffffffff821115610bc857610bc7610b32565b5b610bd1826109ea565b9050602081019050919050565b82818337600083830152505050565b6000610c00610bfb84610bad565b610b92565b905082815260208101848484011115610c1c57610c1b610b2d565b5b610c27848285610bde565b509392505050565b600082601f830112610c4457610c43610b28565b5b8135610c54848260208601610bed565b91505092915050565b600080600060608486031215610c7657610c75610a94565b5b6000610c8486828701610ae7565b9350506020610c9586828701610b13565b925050604084013567ffffffffffffffff811115610cb657610cb5610a99565b5b610cc286828701610c2f565b9150509250925092565b600060208284031215610ce257610ce1610a94565b5b600082013567ffffffffffffffff811115610d0057610cff610a99565b5b610d0c84828501610c2f565b91505092915050565b600060208284031215610d2b57610d2a610a94565b5b6000610d3984828501610ae7565b91505092915050565b610d4b81610abe565b82525050565b6000602082019050610d666000830184610d42565b92915050565b7f4e487b7100000000000000000000000000000000000000000000000000000000600052602260045260246000fd5b60006002820490506001821680610db357607f821691505b602082108103610dc657610dc5610d6c565b5b50919050565b60008190508160005260206000209050919050565b60006020601f8301049050919050565b600082821b905092915050565b600060088302610e2e7fffffffffffffffffffffffffffffffffffffffffffffffffffffffffffffffff82610df1565b610e388683610df1565b95508019841693508086168417925050509392505050565b6000819050919050565b6000610e75610e70610e6b84610a56565b610e50565b610a56565b9050919050565b6000819050919050565b610e8f83610e5a565b610ea3610e9b82610e7c565b848454610dfe565b825550505050565b600090565b610eb8610eab565b610ec3818484610e86565b505050565b5b81811015610ee757610edc600082610eb0565b600181019050610ec9565b5050565b601f821115610f2c57610efd81610dcc565b610f0684610de1565b81016020851015610f15578190505b610f29610f2185610de1565b830182610ec8565b50505b505050565b600082821c905092915050565b6000610f4f60001984600802610f31565b1980831691505092915050565b6000610f688383610f3e565b9150826002028217905092915050565b610f81826109a4565b67ffffffffffffffff811115610f9a57610f99610b32565b5b610fa48254610d9b565b610faf828285610eeb565b600060209050601f831160018114610fe25760008415610fd0578287015190505b610fda8582610f5c565b865550611042565b601f198416610ff086610dcc565b60005b8281101561101857848901518255600182019150602085019450602081019050610ff3565b868310156110355784890151611031601f891682610f3e565b8355505b6001600288020188555050505b505050505050565b6000604082019050818103600083015261106481856109fb565b9050818103602083015261107881846109fb565b90509392505050565b600081905092915050565b6000815461109981610d9b565b6110a38186611081565b945060018216600081146110be57600181146110d357611106565b60ff1983168652811515820286019350611106565b6110dc85610dcc565b60005b838110156110fe578154818901526001820191506020810190506110df565b838801955050505b50505092915050565b7f3b20000000000000000000000000000000000000000000000000000000000000600082015250565b6000611145600283611081565b91506111508261110f565b600282019050919050565b6000611166826109a4565b6111708185611081565b93506111808185602086016109c0565b80840191505092915050565b6000611198828561108c565b91506111a382611138565b91506111af828461115b565b91508190509392505050565b600081546111c881610d9b565b6111d281866109af565b945060018216600081146111ed576001811461120357611236565b60ff198316865281151560200286019350611236565b61120c85610dcc565b60005b8381101561122e5781548189015260018201915060208101905061120f565b808801955050505b50505092915050565b6000604082019050818103600083015261125981856109fb565b9050818103602083015261126d81846111bb565b9050939250505056fea2646970667358221220e198ec1e9d11aec106bfa30ad01aa29654ecf50bc58cc6ecd3e913e6b551768164736f6c634300081b0033",
  "linkReferences": {},
  "deployedLinkReferences": {}
}